:020000041000EA
:1000000000B5324B212058609868022188439860DF
:10001000D860186158612E4B002199600221596106
:100020000121F02299502B49196001219960352056
:1000300000F044F80222904214D00621196600F024
:1000400034F8196E01211966002018661A6600F04E
:100050002CF8196E196E196E052000F02FF8012189
:100060000842F9D1002199601B49196000215960AB
:100070001A491B48016001219960EB211966A021F2
:10008000196600F012F800219960164914480160C1
:100090000121996001BC002800D000471248134993
:1000A000086003C880F30888084703B5996A0420EC
:1000B0000142FBD001200142F8D103BD02B5186610
:1000C0001866FFF7F2FF186E186E02BD00000240BE
:1000D000000000180000070000035F00212200005C
:1000E000F4000018222000A00001001008ED00E03C
:1000F00000000000000000000000000074B24E7A12
:1001000000200420F7010010C3010010C5010010F9
:10011000C1010010C1010010C1010010C101001097
:10012000C1010010C1010010C1010010C701001081
:10013000C1010010C1010010C9010010CB01001065
:10014000CD010010CD010010CD010010CD01001037
:10015000CD010010CD010010CD010010CD01001027
:10016000CD010010CD010010CD010010CD01001017
:10017000CD010010CD010010CD010010CD01001007
:10018000CD010010CD010010CD010010CD010010F7
:10019000CD010010CD010010CD010010CD010010E7
:1001A000CD010010CD010010CD010010CD010010D7
:1001B000CD010010CD010010CD010010CD010010C7
:1001C00000BE00BE00BE00BE00BE00BEEFF3058054
:1001D000103800BEF2EB8871B4410010D441001019
:1001E0003802001090A31AE71E481F49086006C88D
:1001F00081F3088810471D480068002801D019487D
:10020000F3E70DA40ECC002902D000F012F8F9E7B4
:100210001749184A002000E001C19142FCD116495B
:100220008847164988471649884700BEFDE701C937
:1002300001C29A42FBD37047D4410010C000002095
:10024000E8010020FC42001000000420000004200F
:10025000FC420010001004200010042000000000E8
:10026000704700000000000008ED00E0000000D032
:10027000E8010020D80500203D370010C103001020
:1002800035370010F8B5C04606480749091A8B10E3
:10029000C90FC91810B5491003D0044B002B00D06A
:1002A000984710BDE8010020E80100200000000090
:1002B000054B10B5002B03D00449054800E000BFF2
:1002C000FFF7E2FF10BDC04600000000A8050020B7
:1002D000683E0010F0B5D6464F464646C0B51E00F3
:1002E000802386B05B020293C0231B030493130098
:1002F0009046023307321203DB0113430393F823C2
:1003000072019B001A40C0231B05134305931C4B2D
:100310000500C418240D0634E4B20F00300021009B
:1003200000F074F8731C210018009A4600F06EF873
:1003300021000124B31C9946180000F067F8320030
:10034000390001232800009403F076FC524639005E
:1003500001232800009403F06FFC4A463900012372
:100360002800009403F068FC42463900280002ABE4
:1003700003F0BCFC06B0E0BCBA46B146A846F0BDEE
:100380000000E0AF70B505001E000C00FFF7A2FFF3
:100390000122A2402B6831001A432A600648049AC1
:1003A00003F0BCFB049B0548590000F087FF0434B0
:1003B0000338A400605170BD683E001040597307B7
:1003C00010B582B003F0D4FA0C490D4803F0B2FB2B
:1003D00004000C48210003F0A1FB0323220000933A
:1003E000002100230648FFF7CDFF074C200003F053
:1003F0000DFBFA20800000F00DFCF7E74C3F0010E9
:1004000000002050843E00109C3E0010094A8300EA
:100410009A1810B514684022544080322240064C8D
:10042000C000A44663441A60044B9C46604441608B
:1004300010BDC04604C0014004D00140004001404E
:100440000FB400B5084883B003F0E0FA049B002B1A
:1004500007D005A91800019103F052F9034803F0F1
:10046000D5FA012003F064F9AC3E0010BC3E001048
:10047000EFF3108072B6034A1368002BFCD0BFF371
:100480005F8F70472C0100D0BFF35F8F0022024BBB
:100490001A6080F3108870472C0100D070B5EFF31C
:1004A000108C72B60D4D2B68002BFCD0BFF35F8F04
:1004B0000724CB08C618C05C01230C40A3401C00D5
:1004C0000440034207D118433070BFF35F8F2C60A4
:1004D0008CF3108870BD1000FFF7B2FF2C0100D024
:1004E000044A1078431CDBB2172B00D91023137079
:1004F0007047C046980100200021044B044ABFF316
:100500005F8F02C39342FAD17047C046000100D00A
:10051000800100D0054B064A1360064A1360536001
:100520009360D360136153619361704780808080D2
:1005300000E400E004E400E01F2318401E3B834079
:10054000002905D0C021044A490053501360704768
:10055000802201498B50FAE700E100E070B50D0000
:10056000EFF3108672B60F4A1368002BFCD0BFF36E
:100570005F8F0D4B10309B6884001B590B4A9342D0
:1005800003D09D4201D000F093FD074B9B681D51A5
:10059000BFF35F8FBFF35F8F0022024B1A6086F3B9
:1005A000108870BD240100D000ED00E0CD010010E6
:1005B000024B9C4661448900016070474000003452
:1005C00070B5114C114DAC420FD2FF262368002BA1
:1005D0000CD0FFF785FF01002000FFF7E9FFA680A0
:1005E000BFF35F8F0834AC42F0D370BDFFF778FFE4
:1005F00001002000FFF7DCFF2671BFF35F8F083496
:10060000AC42E3D3F1E7C046E0010020E80100205E
:100610000A4B1968EFF3108072B60A68002AFCD002
:10062000BFF35F8F1B68BFF35F8F00221A6080F3F8
:10063000108840BF002000217047C046D40500202C
:10064000F0B5DE4657464E464546E0B583B0EFF37B
:10065000058203231340B54A9900525800919046F1
:1006600001229A40B24B93461A60B24B01932EE09E
:1006700043469B881BB2002B00DB99E043469B79E5
:10068000002B00D0DDE0434608241C5F002C00DA7C
:1006900006E143465A6963001B19DB00D3189D68C5
:1006A000DC686B1C00D107E1A34B00999C466144B8
:1006B0009A6A0B69A81A9B1A984200D20D619E484B
:1006C00000F03EFB8C4200DDEAE000D126E15B4613
:1006D00099484363434608229B5E9946002BC7DB3B
:1006E000424652695B0092464B44DB009A445346B3
:1006F0009E68DF6800F024FB8F42B9DC00D100E186
:10070000002F00DAE1E05246534654691B69019A12
:10071000934200D1D4E0414652460820085E5288F8
:10072000000421001043984704000D0023002B43D0
:1007300000D1CAE0002D00DBE7E030003900001BEB
:10074000A94153469860D96000229A5E002A8FDB47
:1007500043465D6953009C18E4002C19A768E468BF
:100760008C4200DD84E702D1874200D980E746460B
:10077000328108360DE08C4200D1D3E01E00002308
:10078000F25E002A0ADB53009C18E4002C19A768CB
:10079000E4689B18DB00EB188C42ECDD53461A80B2
:1007A0004B46338043469B881BB2002B00DA65E73B
:1007B00043461A69EFF3108172B61368002BFCD020
:1007C000BFF35F8F43469E88012342465B4293807E
:1007D00036B21369BFF35F8F00221A6081F310886D
:1007E000002E00DA4AE743465D69083342469C46DC
:1007F0007700BF19FF00EF19BB68604698460823D1
:10080000D15E9246FC68002907DA0EE0A2424FD082
:1008100018000023C15E002906DB4B005B18DB00DB
:10082000EB18DA68A242F1DD524606800023FE5E34
:100830003980002EDCDA904643469B79002B00D1AC
:1008400021E7002342469371434646460821595EFC
:1008500008364B1C24D047468946556902E00600FD
:100860004B1C18D04B005B18DB00E8180A008C46C4
:10087000E95E43881BB2002BF1DA01235B42DC17EF
:100880008360C4604A4503D031803B8903803A814C
:10089000E1464B1CE6D14C46B846002C00DBF8E69E
:1008A00040BF03B0F0BCBB46B246A946A046F0BD6F
:1008B0009A684245ACD9B7E7631C00D0F4E6FEE67F
:1008C000200023699847002825D1534642461B88BB
:1008D00013811269EFF3108372B611680029FCD0FE
:1008E000BFF35F8F4246514652880A8042464946CE
:1008F00051801269BFF35F8F0021116083F310886C
:10090000B6E6864200D8FBE6B2E60B4800F018FADD
:100910000019694115E76568246807E7854200D832
:10092000D5E6BDE7874200D828E737E7C0050020B5
:100930003C700540410600100040054070B52E4C4B
:100940002569002D04D00A212C48FFF731FE70BD27
:100950002B4E0321300000F0E9F9E660FFF7C0FDFF
:10096000284B03229C46D02322701B061B680121C2
:100970006370254B6044A3600F2380002061022038
:10098000638063694942A180198002311986473129
:100990001D83585218315A5275325C3999521832A7
:1009A000013199521832013199521832013199525C
:1009B000083518329D5202311832995218320131DD
:1009C0009952183201319952183201319952183224
:1009D000013199521832013199520C4B0C49DC60AB
:1009E00001303562FFF7BAFD01210320FFF7A4FDB6
:1009F000084B1D60A7E7C0469C010020D4050020DD
:100A00000040054040000034FFFF1000C0050020FA
:100A1000410600103860054070B501000469EFF32D
:100A2000108C72B620680028FCD0BFF35F8F0220C4
:100A30000D5E4C6968004019C0002418002D37DB9A
:100A4000208848800869BFF35F8F002606608CF31A
:100A50001088E36063880498013320615B04059883
:100A60005B0CA26060611A1C002B1FD093B228049B
:100A7000628018430A69EFF3108C72B61368002B7A
:100A8000FCD0BFF35F8F8B8823808D800B69BFF311
:100A90005F8F00221A608CF310880B7801329A4025
:100AA000CB6808498C4663441A6070BD0122DDE7BB
:100AB0000B69BFF35F8F00221A608CF3108801204E
:100AC0004042F2E73C20000010B543890A149342EB
:100AD0001ADD53009B184269DB00D3180469EFF359
:100AE000108C72B62268002AFCD0BFF35F8F5A8840
:100AF000090494B2090C8A4208D00369BFF35F8FDE
:100B000000221A608CF31088002010BD802212028F
:100B100014435C80012302698371BFF35F8F00215E
:100B200011608CF31088044902788C469340C268A7
:100B3000012062441360E8E73C200000F0B50400A7
:100B40000D0006267642F717C64636196F4100B5E6
:100B500082B08F4214D811D000F0FAF832003B0076
:100B6000121A8B41002B17DC002B47D020002900E4
:100B700000F0F8F802B080BCB846F0BD8642EBD970
:100B80000022002316001F0000F0E2F832003B00B4
:100B9000121A8B41002BE7DD00F0DAF832003B003F
:100BA000121A8B41002B0ADB00230193154B3200F4
:100BB000009315483B00FFF72FFF0028D6DB0023EA
:100BC0009C46B046114A124E736A9F4204D8B16ADD
:100BD0008845CBD99F42C9D11168EFF3108072B616
:100BE0000B68002BFCD0BFF35F8F1368BFF35F8FE0
:100BF0006146196080F3108820BFE5E7002AB5D070
:100C0000CAE7C046110600109C010020D405002050
:100C10000040054070B5060000F09AF8FA22040082
:100C20000D00002330000021920001F063F98023C1
:100C3000001969411B06994202D301200249404232
:100C4000FFF77CFF70BDC046FFFFFF7FF0B5CE46CB
:100C5000474680B504000D0083B0EFF30587884652
:100C6000002F3ED12E4EA1463378F06804339B000E
:100C7000816A1B58601A5B1A98420ED320BF29491B
:100C800000204B6AAB4203D38A6A0130944231D8C8
:100C900003B0C0BCB946B046F0BD00F059F8220020
:100CA0002B00121A8B41002B2FDB1F4B22000093CD
:100CB00030002B000197FFF7AFFE011E25DD194B19
:100CC0005A6AAA421BD220BF3000FFF7FDFE154A28
:100CD0000020536A4345DBD3926A01309145D7D94E
:100CE00008E0104900204B6AAB42D1D38A6A013038
:100CF000A242CDD25B1B5A1E9341D8B2C8E79B6A71
:100D00009C42E1D9AA42DFD1DDE7064A0020536ABE
:100D10004345BDD3926A01209145B9D9EAE7C0465F
:100D20009C010020004005401106001010B5024A49
:100D30000248FFF7B3FB10BDC03E00107005002055
:100D40000300416A0A00986A596A8A42FAD17047D8
:100D5000034B596A0A00986A596A9142FAD170475E
:100D600000400540064A536A9942FCD807D1044B1B
:100D700002E05A6A914202D19A6A8242F9D37047DC
:100D800000400540F8B5DE464E4657464546E0B5BC
:100D90008B4605000A991800160000F08FFA0A9B8E
:100DA0006C001F02324B64199C46A40064446368C3
:100DB00081469F4200D967602B1FDBB29846012B0A
:100DC00030D9C02380229B01E31812011A60294BFD
:100DD000AD0059599A4600291BD17301E0262268BB
:100DE00053401E40802342465B01E3181E60012AE7
:100DF00030D9802380229B01E31812011A605346E8
:100E00004A4667605A51F0BCBB46B246A946A04666
:100E1000F8BD586900F052FA013043001B18033B3B
:100E2000FDD2DAE75B46012BCBD1C02303229B0125
:100E3000E3181A60023AA3681A42FCD07301E02654
:100E40002268AD0053401E4080230A4A5B0192464F
:100E5000E3181E605A462168514003220A401A6076
:100E600001225B469A40A3681A42FCD0C1E7C04603
:100E70000080004074050020F0B546464F46D64637
:100E8000C0B51F00344B44009C462418A4006444A1
:100E9000636888461600FF2B02D880235B006360DE
:100EA000031FDBB29A46012B30D9C02380229B015D
:100EB000E31812011A60294B8500595999460029F7
:100EC0001BD17301E026226853401E408023524606
:100ED0005B01E3181E60012A30D9802380229B0128
:100EE000E31812011A6080235B0063604B465F5178
:100EF000E0BCBA46B146A846F0BD586900F0DEF93C
:100F0000013043001B18033BFDD2DAE74346012BB7
:100F1000CBD1C02303229B01E3181A60023AA368D5
:100F20001A42FCD07301E0262268850053401E401F
:100F300080230A4A5B019146E3181E6042462168FD
:100F4000514003220A401A60012342469340A2689E
:100F50001342FCD0C1E7C046008000407405002069
:100F6000014B8000C058704774050020F8B504009C
:100F700021481E0017000D0000F0A0F90100380004
:100F800000F09CF9069B36041B031E432368002BCC
:100F900020DB1A4B1A49E3185A1E93418022920112
:100FA00094465B421B0B174A1B0363441360164AAB
:100FB00013601F000A689743FBD1144B2560E218A9
:100FC0002123A06013602368002BFCDA0823E6606D
:100FD0001360F8BD3F2322681340AB42D9D1A36808
:100FE0001B051B0D8342D4D1EE22E368D2021340CD
:100FF000B342CED1EDE7C046001BB7000040FDBFB5
:1010000008C0004000E0004000F000400430000054
:101010008023024A9B000B43D36270470080054047
:10102000142310B50100188804331B88984710BD9D
:10103000162310B50100188802331B88984710BD8D
:10104000F8B54746CE4680B50F1E19D014239946F1
:10105000043304000025012698464B461888434671
:1010600021681B88984701C4431E984101354042BE
:101070000640AF42F1D13000C0BCB946B046F8BD21
:101080000126F8E7AA23064A1B0113602F2305490E
:10109000D360054B19605368002BFCDA7047C046DB
:1010A0000040024000B0FA00006002407047C046B5
:1010B00010B50148FFF7C4F9E43E001070B5074DC4
:1010C000074EB54209D20024013E761BB60808CD72
:1010D000984723000134B342F9D170BD283E001077
:1010E000643E0010054B064A06491A60064A074B43
:1010F0001A6010000B689843FBD1704700E0004075
:10110000BFCDFBFE08C00040FE7F3C0000F0004069
:10111000044BDB6C002B03D18022034BD2021A60FC
:101120007047C046000011504C201150044A054B36
:101130001A60054A1368DB018033FBD17047C04653
:10114000FFFFFF0100F0004008C000404022034BB9
:101150009A675A671A67DA667047C04600F001401E
:1011600010B5FFF7C9F910BD70B5044D044CA9685E
:10117000C022200000F028FFAC6070BD00ED00E050
:1011800000000020002310B5294C82B0A367FFF7B0
:1011900079FF0122274B1A60636C012BFCD10322DB
:1011A000254B1A60224A936B012BFCD1013300932B
:1011B0000121224A22480433FFF7D8FE05230121EA
:1011C0000093204A2048FFF7D1FE0022022104208C
:1011D0001E4BFFF751FE0022012105201C4BFFF79B
:1011E0004BFE0022002107201A4BFFF745FE00228C
:1011F00000210820174BFFF73FFE8023DB00009300
:10120000002200210920134BFFF7BCFD0022104BE8
:1012100000210620FFF730FE0420FFF7A1FE0E4953
:1012200000F04CF801000020FFF7F2FE02B010BD04
:10123000008000403CB0004030B00040002F6859B2
:1012400000800240008C864700C00240001BB700AF
:1012500040597307006CDC0240420F000148042132
:10126000014B1847C001002041100010124A936F33
:101270009B0815D29066D166002905D0FFE7FFE7ED
:10128000FFE7516F106F704704B580210906C21740
:101290005140002800D0C84302F0B6FD002104BD33
:1012A000F0B5146E556E576F166FFFF7E3FF1466B7
:1012B000556657671667F0BD000000D0114A936F5E
:1012C0009B0813D210665166002905D0FFE7FFE79F
:1012D000FFE7516F106F704704B5002801D0002060
:1012E000C04302F091FD002104BDC046F0B5146E6C
:1012F000556E576F166FFFF7E5FF14665566576713
:101300001667F0BD000000D094464A4A926F9208DA
:10131000624601D228E0C046F0B5464E346E756E86
:10132000776F366F00F020F89446424A146655668F
:10133000576716676246F0BD94463E4A926F920820
:10134000624601D254E0C046F0B53A4E346E756E36
:10135000776F366F00F04CF89446364A146655663F
:10136000576716676246F0BD002B24DB11D00029B9
:101370003EDA00B5C943404200D1013100F038F8EF
:10138000C943404200D10131DB43524200D1013315
:1013900000BD002AEBD1002801D1002905D0002092
:1013A000C90FC90701D1C043410800B502F024FDAF
:1013B0000022002300BD00B500290ADBDB435242B6
:1013C00000D1013300F014F8C943404200D101318B
:1013D00000BDC943404200D10131DB43524200D13C
:1013E000013300F005F8DB43524200D1013300BD68
:1013F000002923D1002B18D1002A0CD0BC460D4F58
:1014000038667A6600210023FFE7FFE7FFE77A6F7F
:10141000386F67467047002801D00748010000B5C3
:1014200002F0EAFC0022002300BD02000B000020B5
:1014300000217047000000D0FFFFFFFF002B00D00D
:10144000BFE0130C28D1002AE7D080B4114F3966D1
:101450007A66FFE7FFE730B4040C7B6F396F1B043B
:1014600023433B667A66FFE7FFE7FFE7C04684B2A7
:101470007B6F3D6F1B0423433B667A66FFE7FFE704
:10148000C04600232C042D0C7A6F386F0019694177
:10149000B0BC7047000000D0F0B594460025140E93
:1014A00001D112020835140F01D112010435940F35
:1014B00001D192000235D40F01D152000135D40B75
:1014C0000134254F7C66254C3C660E0C93B2FFE739
:1014D000FFE7FFE73C6F6643360C7703BE46734376
:1014E000DF0B5B04C01AB941130C7343DB18C91A34
:1014F000CE086643360CB64493B273431F0F1B01EC
:10150000C01AB941130C73431F0B1B05C01AB94114
:10151000860D8F023E436643360C092D24DB520AAA
:101520007243801A7703460A6643360C16235B1B08
:10153000DE40DF40BF1964466643821B70460435B7
:1015400006330100D940A840C01900D30131A2429E
:1015500006D20023F0BD0000000000D0FFFFFFFF17
:10156000121B0130F3D3F1E709277F1BFE406446CD
:10157000A2B27243801A00D20139220C7243130CBA
:101580001204821A99410B0070460435133701008A
:10159000F940A840801900D30131002B02D1A242AA
:1015A0000AD2F0BD013000D30131121BFAD2013B47
:1015B000F8D1A24200D2F0BD013000D30131121B9C
:1015C000F7E7F0B51C0C00D080E00CB400251C0A35
:1015D00004D11B02160E3343120208351C0B04D132
:1015E0001B01160F3343120104359C0B04D19B00E1
:1015F000960F334392000235DC0B02D192185B4107
:1016000001351C00971864410134464F7C66464CF6
:101610003C660E0CFFE7FFE7FFE7C0463C6F664302
:10162000360C7703BE4697B27743C01B00D2013910
:10163000C01B00D201399FB27743C91BC91B170CCD
:1016400077437E04FF0B801BB941CE086643360CFE
:101650000C2D33DBB644120B1F053A431B0B97B21C
:101660007743C01B00D201399FB27743C91B170CC7
:1016700077433E043F0C801BB941860D8F023E43E9
:10168000664329277F1BFE400C3D7746AF40BF19BC
:1016900030BCA2B2ABB272437343801A9941220CA0
:1016A0007243130C1204801A994102000B00013797
:1016B000001BA941F9D2781E0021F0BD0C277F1B29
:1016C000FE4077467F0BAF40FF19E0E700245D1C2A
:1016D00007D0144F7D663966FFE7FFE7FFE7FFE7B6
:1016E0003C6F95B29EB265436643401BB141150CF9
:1016F0001E0C6543664336042F0C3E432D04401BED
:10170000B141994204D202000B0020000021F0BD3B
:1017100001D19042F7D3801A994101349942F2D312
:10172000F6E70000000000D0FFFFFFFF4840414007
:10173000484018B41B4B5B68FC46019308BD04DFAE
:10174000C719001018B4174B1B68FC46019308BD5D
:1017500000DFD11900109446134A926F920809D203
:10176000624618B40F4BDB68FC46019308BD0CDFE2
:10177000891C00100C4AF0B5146E556E576F166F29
:101780006246FFF7EEFF084A14665566576716670C
:10179000F0BD18B4034B9B68FC46019308BD08DFFD
:1017A0002D1B001068030020000000D0FFB5504042
:1017B0004240504059404B40594000E0FFB5154F62
:1017C0004C00640D03D0BC4204D10C0314D800209B
:1017D000090D09055C00640D03D0BC4204D11C0353
:1017E0000AD800221B0D1B0501264B4009D44B4093
:1017F00003D58B4200D18242FFBD9942FCD1904279
:10180000FFBD0B43DB1803431343F5D0C94349180D
:10181000FFBD0000FF07000000B5FFF7CFFF8041CC
:1018200000BDC04600B5FFF7C1FF01D9002000BDD3
:10183000012000BD00B5FFF7B9FF804100BD0120C8
:1018400040054A00121804D85A00121801D8002086
:1018500070470120704700000021002805D1704723
:10186000C1174840401AFAD0C90713B5064B1B6888
:1018700098470CBC441CA2401005120B0349091BDD
:1018800009051943114310BDD00500201F040000B5
:1018900010B54C00620D8023D218DB00D21A5B0514
:1018A0007E2A10DD9E3A13DACC1709034908194342
:1018B0005242D140640001341532202A05DAD0406A
:1018C0000843604310BD002010BD0846604310BDB2
:1018D000C80FC018013810BD18B4044B5B6AFC4631
:1018E000019308BD24DF391E0010000068030020AA
:1018F000132370B51D78012D19D014DD1F48FFF793
:1019000097FB06001E48FFF793FB1E4C8022310018
:10191000200000F059FB022D2DD01B48FFF780FB63
:101920001A4B186070BD1A4B164CA364F5E7184BA0
:10193000144C23606360A360E36023616361A3616F
:10194000E36123626362A362E36223636363A3636D
:10195000E36323646364A364E36423656365A3654D
:10196000E36523666366A366E36623676367A3672D
:10197000E367A364D1E7064BA364CEE753440000BA
:1019800053460000680300204C330000D0050020BF
:101990009519001007B5604601880A0A0230DF2A4F
:1019A000FAD1C9B2820804D30288408800041043E7
:1019B00000E00068014A5050039007BD6803002012
:1019C0000FB403BC0CBCF0B50124E407634000E095
:1019D000F0B50C0DCF0F661E3605891B640503D3C9
:1019E000C943404200D30131640D03D0661CF60A9E
:1019F00007D0E41B00207F00791C89078912803CF6
:101A000024031D0DDF0F6E1E36059B1B6D0503D3D2
:101A1000DB43524200D301336D0D03D06E1CF60A36
:101A200007D0ED1B00227F007B1C9B079B12803D93
:101A30002D032F1B661B58D4A446202E46DA2037D0
:101A40001400BC401D00BD40F24033412A438018C1
:101A50005941CB0F05D0C943C043002264425041D5
:101A6000514162464D0D28D10D0D07D100281FD0E0
:101A7000241940414941013A0D0DF9D0640006D3C3
:101A8000013000D30131002C01D140084000013A5F
:101A90000BD4941CE40A04D112051144DB07194449
:101AA000F0BDD907204B194300E0D9070020F0BD55
:101AB0000029DDD1002CDBD1F0BD0132C607400882
:101AC000CD0728434908002EE1D0D9E73C2E29DA7A
:101AD000203E40371400BC4000D00124F2401443A3
:101AE0001A00BB401C43D317ACE7AC46202F08DAE2
:101AF00020360400B4400D00B540F8403941284379
:101B0000A5E73C2F0CDA203F40360400B44000D05B
:101B10000124F84004430800B1400C43C117EAE730
:101B200010001900002494E70000F07FF0B50C0DC0
:101B3000661E3605891BE60A6405640D02D0651C25
:101B4000ED0A04D0002001210905803C2403A446AD
:101B50001C0D671E3F05DB1BE70A6405640D02D000
:101B6000651CED0A04D0002201231B05803C2403E0
:101B70007740644497B484B296B27443070C7E43B2
:101B8000150C6F4380B26843361802D3012000045D
:101B90003F183004350C00197D41844688B29AB252
:101BA00050430C0C62431F0C7C438EB27E4392194F
:101BB00002D301263604A4191604170C36186741FF
:101BC00001BC81B29AB25143040C62431B0C5C43CA
:101BD00080B25843121802D30120000424181004C4
:101BE000130C401863412D185E410020474106BC8C
:101BF00088B293B258430C0C6343120C544389B21D
:101C000051435B1802D301210904641819041A0C0A
:101C1000091862416D1856410020474118BCF9026D
:101C2000720D1143F0026A0D1043ED020A0D03D14B
:101C30006D1940414941013B124E9B1B7600B34256
:101C40000ED26D0007D30130002671416646354340
:101C500001D1400840001B05C918E4072144F0BD2C
:101C60000BDA013306D1013004D101314F0D01D01F
:101C70004908F2E7E1070020F0BD013631050020F8
:101C8000EBE70000FF030000F0B51C0D671E3F05E9
:101C9000DB1BE70A6405640D02D0661CF60A04D05B
:101CA000002201231B05803C2403D0252D0600269D
:101CB000F6432E661E096E66CE0FF619B44649002D
:101CC0004F0D02D07E1CF60A03D000200021403FB9
:101CD0003F033E1BB600B444013F7F05C91B4908C2
:101CE0002E6F013676089C02950D25437543ED1342
:101CF0007543AD1301356D10F603761B0CB4CC02A1
:101D0000450D2C43A2B2B3B25A43270C7B43350C8A
:101D10006F43A4B26C431B1902D3012424043F195E
:101D20001C041D0CA4187D4124196D41009A91B228
:101D3000ACB26143170C7C432B0C5F4392B25A4305
:101D4000A41802D301221204BF182204230C521833
:101D50007B41019C6C431B19520ED9010A4344017B
:101D6000A01A81B2B2B2514303145A43360C7343E2
:101D700087B27743D617D21900277E4136049B19C4
:101D80001704160C7F185E417316ED18F301002638
:101D900080337541A90F06D16400690AE8055B0A22
:101DA000184309D22FE00422944480337541A90AD4
:101DB000A8059B0A184326D3404149412404009AB0
:101DC000019B0D005543641B4343E41A95B286B250
:101DD0007543170C7E43030C5F4392B25A43B61807
:101DE00002D301221204BF183204330C52197B4172
:101DF00052429C41002C02D4002201305141400843
:101E0000CA071043490802B06246D7079210084B30
:101E1000D218084B9A4203D212058918C919F0BD8D
:101E20000020002A01DC3900F0BD01331905F5E777
:101E3000FD030000FE070000002200B5203200F084
:101E400004F8080000BD000000220B150AD410B5EC
:101E5000944600F031F81414013400DA0021CB1755
:101E6000144C20470020002170476244343A0CD4BF
:101E70000C2A07DA04009140904052422032D440AC
:101E8000214310BDD843D94310BD203207D40C469E
:101E90009440524220321141D040204310BD0800EE
:101EA000C917203203D452422032104110BD18000D
:101EB000190010BD6B1E00100A0DCC0F531E1B0520
:101EC000C91A520503D3C943404200D30131520D10
:101ED00003D0531CDB0A07D0121B00206400611CD6
:101EE00089078912803A1203014BD21A7047000009
:101EF000FF03000051434343C9188C46110C83B2C1
:101F00004B4310B4040C614392B280B2504362431D
:101F10001C041B0C001910BC59411304120CC018EE
:101F20005141614470470000132310B512481C78DA
:101F3000FFF77EF80100012C0AD003DD80220F4854
:101F400000F042F80E48FFF76BF80E4B186010BD1A
:101F50000A4C5422200000F037F80B4B6365A36550
:101F6000E36523666366A366E36623676367A36727
:101F7000E3672362E361E5E753460000680400205D
:101F80004C330000D00500208D1F001007B56046BF
:101F900001880A0A0230DF2AFAD1C9B2820804D3C2
:101FA000028840880004104300E00068014A505055
:101FB000039007BD6804002001480421014B184725
:101FC000D001002041100010014B5B681847000051
:101FD000D00100207047C046F8B55746DE464E4651
:101FE0004546E0B599460A9B07009A460D9B8846F0
:101FF00093460B9C9B073BD10C9B9C423DD21E1BE6
:102000000B9415000C005E442A004B46013521005C
:102010002020B847B542F7D1A0460B9C002C20D019
:10202000454636195346321B013C185D29004B4684
:10203000B847002CF6D12B00350098460D9B9B0726
:102040000FD55B46EC1A0C9BA3420AD9464698462C
:102050002A004B46310020200134B8470135444561
:10206000F6D32800F0BCBB46B246A946A046F8BD50
:1020700016001500002CD3D1E0E71600002CCFD1BC
:102080001500EEE7F0B54F464646D646C0B584B0DB
:1020900098460EAB1B7894469946129B0D9C109F58
:1020A000119E9A0725D4002E65D1BC4221D201226F
:1020B0001A409246202C00D1E9E00C9A551E30229D
:1020C00002E0202C00D17BE001342A55A742F8D849
:1020D0005246002A0DD0B4420BD20C9A551E302223
:1020E000202C02D171E0202C2DD001342A55B4428D
:1020F000F9D1DA063CD55A052ED4002C28D10F9AF6
:10210000102A00D1B6E0022A00D1BCE030220C9C9B
:10211000227001244A46002A65D15A0700D499E06A
:102120002B220C9D2A55013403930C9B624600938D
:10213000029643460194FFF74FFF04B0E0BCBA4655
:10214000B146A846F0BD2024DA06EDD55A0503D4E1
:10215000A74266D0B44264D00F9A102A71D0022AE6
:1021600057D0202CE0D02200013430250C9FBD54E4
:10217000202CD9D0CEE7012215001D40AA461A42D4
:1021800036D04A46002A4AD10C321A4247D1BC42C4
:10219000A1D2202C91D1202E17D82024DA06C3D525
:1021A0005A051BD4202F01D0202ED5D11F220F9DE0
:1021B000102D6FD0022DD8D162250C9FBD54D0E7D1
:1021C0005246002A79D0202EBDD92024DA06ABD57C
:1021D0005A0503D4202FE9D0202EE7D00F9A102AD9
:1021E000A2D12024A0E72D220C9D2A5501349BE783
:1021F000BC4200D37DE7202C00D05EE7DA06F0D5A4
:102200005A05EED4202F62D0202EEAD134001F22AE
:10221000CDE7202C00D187E722000134CCE7013E36
:10222000B5E7621E012CC2D10F9A102A00D06AE7CE
:102230009A063BD558220C9C2270283A62700224E0
:1022400068E79A060ED4202CCBD078220C9D2A5514
:10225000013486E71A0700D466E720220C9D2A5530
:10226000013461E7202CBCD058250C9A1219157046
:10227000013476E79A0608D558220C9C2270302249
:102280006270022446E76032F7E77822F5E7002A19
:1022900083D1B3E7A21E013C9D0603D478250C9F91
:1022A000BD5460E758250C9FBD545CE778220C9C18
:1022B0002270483A627002242CE7DA0600D433E731
:1022C0005A058BD4202F00D044E71F226FE73C0033
:1022D0001F226CE710B5002800D110BD01F04AFBA9
:1022E000FBE7C0460B0010B5002802D049681B6808
:1022F000984710BDF0B557464E464546DE46E0B518
:1023000099B08246894690460893229A239B1000F2
:102310001900FFF794FA002800D0CDE02298239905
:102320000122D94B5242FFF785FA002800D0C3E0C2
:10233000229823990122D54B5242FFF76DFA0028CB
:1023400000D0B9E02298239900220023FFF764FA15
:10235000002800D0F1E1229E239F8023269ADB00F3
:102360001A400D92269A1A4201D106232493802303
:10237000269A1B011A403B0093460996334300D02E
:10238000B3E0002A00D0C2E1002300240A930B949A
:10239000002304250993259B0024AB4200D95C1B34
:1023A0000223269A1A400C92269A134203D06B42BB
:1023B0006B415B421C40099B002B07D00A9A0B9B88
:1023C00030003900FFF7C7F906000F002298239963
:1023D00000220023FFF720FA002803D080210906FD
:1023E0007B181F00269AAA4B009601971340089E5F
:1023F0000493249B0394029342463300494650467B
:1024000000F0AAF90400002D67D02020269A494642
:10241000024013005A4253415B42621C18400A9228
:10242000330022004530D047099A6F1ED317D418C5
:102430005C40D30F9B46002501E0202D13D008AA55
:1024400094461F23200063440A2101355E19FEF7DC
:1024500035FF3031317020000A21FEF72FFF2600B2
:102460000400092EE9D805230693002304930A33B8
:1024700003935B46089E029310AB0A9A0093494669
:102480003300504605970195FFF7FCFD0C9A0400B8
:10249000002A22D04246851A259AAA421DD9B04662
:1024A0005746160022004346494620200135B847CA
:1024B0000134AE42F6D810E0269B42460493259B99
:1024C00049460393249B50460293229B239C0093EE
:1024D0000194089B00F040F90400200019B0F0BC02
:1024E000BB46B246A946A046F0BD6A4B78009C4662
:1024F000400D6044FFF7B4F9674A684BFFF749F9AC
:10250000674A684BFFF71EF9674A3B031B0B1A43E8
:1025100004000D0009981100644B0022FFF709F92F
:10252000634A644BFFF735F902000B0020002900D5
:10253000FFF708F9FFF7ACF90990FFF791F95E4A48
:102540005E4B04000D00FFF724F900225C4BFFF7FF
:10255000F9F8FFF79DF95B4A5B4B29000C902000CE
:10256000FFF717F904000C980D00FFF779F9574AA7
:10257000574BFFF70EF902000B0020002900FFF770
:10258000D8F804000D0002000B000A940B95FFF729
:1025900000F904000D000A980B9902000B00FFF7E8
:1025A000D1F800220E900F914A4B20002900FFF72E
:1025B000D2F80022484BFFF7C5F802000B002000BC
:1025C0002900FFF7C8F80022444BFFF7BBF80200D0
:1025D0000B0020002900FFF7BEF80A9A0B9B0D00A4
:1025E00080210400C9050020FFF7A3F802000B00BA
:1025F00020002900FFF7A6F802000B000E980F99A3
:10260000FFF7A9F80022284BFFF79CF8344B0C9CED
:102610009C46644423050022FFF7BBF804000D002C
:1026200002000B00300039000A940B95FFF7F4F814
:1026300000285DD123002A00C625099963318D4207
:10264000AD4159466D420435002900D1A3E613433C
:1026500063D030003900234A234BFFF7E3F800280A
:1026600007D0002230003900204BFFF7D5F80028B2
:1026700053D1249B002B00D18DE60D9B5A1E934114
:10268000249AD31A249386E6FFFFEF7FFFFFEFFF24
:10269000FFF7FFFF01FCFFFFFB799F501344D33F7F
:1026A000B3C8608B288AC63F0000F03F0000F83FA7
:1026B00061436F63A787D23F71A379094F930A40A3
:1026C0000000E03F1655B5BBB16B0240EF39FAFE92
:1026D000422EE63F00002C4000002440000018403D
:1026E000FF0300002D431CEBE2361A3F80842E418D
:1026F000099B0022013B09932000164B2900FFF79C
:102700002AF80A00010003000A910B9294E70023C3
:1027100000240A930B9400230993249A099B9A425C
:1027200014DDD31A013B24938023269ADB001A433D
:1027300000230025269209932DE680221206944656
:10274000229B1E00239B63441F0006E60023249364
:10275000EAE7C04600002440F0B54546DE464E4656
:102760005746E0B595B08B46904699461E9A1F9BFA
:102770000A9019001000209DFFF761F8002800D092
:10278000B0E11E981F990122C74B5242FFF744F84F
:10279000002800D037E11E981F990122C34B5242F6
:1027A000FFF748F8002800D0A7E01E981F990022E4
:1027B000BF4BFFF73FF8002800D088E01E981F9914
:1027C0000022BC4BFFF728F8002800D07FE01E98BD
:1027D0001F9900220023FFF71FF8002800D0FAE01D
:1027E00000230B938023229C229ADB001C401A4278
:1027F00000D102E1092D00D87CE106A98C462C000D
:10280000172200233021093C62440133D154EF1ACE
:10281000202B00D132E1A342F7D10022A44B069233
:1028200007931E981F99FFF733F80500FFF718F874
:1028300002000B001E981F99FEF77BFF069A079B6C
:10284000FEF7A7FF08900991FFF746F80600FFF78B
:1028500003F802000B0008980999FEF76AFF0022AE
:10286000954B08900991FEF7E5FF002800D1D2E0D2
:1028700001363000FEF7F0FF069A079BFEF7D2FF05
:10288000002801D000260135AA46002F00D098E08C
:102890002800FEF7E5FF02000B001E981F99FEF7C7
:1028A00048FF854B002206000F00FEF7B5FF0CAB7A
:1028B0009A46002845D10022300039007E4BFEF7B1
:1028C000B9FF00283DD1EB073BD5013539E0229B0C
:1028D00042460493219B594603930A981E9B1F9CD2
:1028E0000295009301944B46FFF704FD15B0F0BC30
:1028F000BB46B246A946A046F0BD229B5B0767D403
:1029000003226E4B22990192039121990291009327
:1029100042464B4659460A98FFF75EFBE6E706AA91
:1029200094461723280063440A2101341E19FEF738
:102930009DFC3031280031700A21FEF797FC051EFE
:1029400076D0202CEBD10323229A1340012B1DD1EA
:10295000219B002B1AD00B9B002B00D0BBE0229AAE
:102960000C33134200D0B6E0219BA34200D887E08D
:1029700006AB9C4617223023624404E021990134BF
:1029800013558C4259D0202CF8D12024229B01943D
:102990000393219B02935346B9E706AA9446172353
:1029A0000A216344300001341D19FEF787FC3031E1
:1029B000297030000A21013FFEF780FC092E46D91C
:1029C0000600202CE9D155460CAB20249A46B8E7E6
:1029D00004223B4B96E71E9A1F9B00200021FEF726
:1029E000A8FE01230B938023229C229ADB001E90D9
:1029F0001F911C401A4200D0FCE60022314B0627F2
:102A0000069207930DE7229B0393219B02930423D5
:102A100001932D4B7BE7002208980999264BFEF77E
:102A2000FBFE002800D02FE7002E4FD101362BE708
:102A30000323229A1340012B66D0202CA6D00B9B97
:102A4000002B1FD02D235246135501349EE75546C7
:102A5000202CB9D030233A19002F08D0172006A90E
:102A6000013409180B55202CAED09442F6D10CAB92
:102A70009A462E2352461355013462E72024CCE6B1
:102A8000202C83D0229B5B0708D4229B1B0700D4F9
:102A90007CE7202352461355013477E72B23524617
:102AA0001355013472E7C046FFFFEFFFFFFFEF7FD2
:102AB00065CDCD4165CDCDC10000E03F3C3F00106C
:102AC000343F001080842E41443F0010F30700D4AF
:102AD000DAE60136D8E6219B013B2193A34200D9D7
:102AE00046E7AAE7229B0393219B029303230193CA
:102AF000074B0CE7074BEA009B185C681B682F002C
:102B00000693079400248CE6219B002B95D022E7A6
:102B1000403F001060410010F0B55746DE464E467B
:102B20004546E0B5A5B01F002E9B91460D93CA4ABD
:102B3000CA4B82468B461A60002900D129E2002345
:102B400038789846002800D12BE2C54B44460C93B8
:102B5000C44B55464E460E930AE0631C984622002D
:102B600033005946A84744463878002800D187E00A
:102B700001372528F1D108239A46043B9946023BA8
:102B80009846013B00229C460B943878791C030040
:102B9000203BDBB2102B03D80C9C9B00E3589F46D4
:102BA0000300303B0B9C0B92092B3AD9002398462B
:102BB0002A2800D1DDE000239A462E284BD00300BE
:102BC000683BDBB2122B1ED80E9A9B00D3589F464F
:102BD00063460F001A43D8E743460F001A43D4E771
:102BE0004B460F001A43D0E710230F001A43CCE7DF
:102BF00053460F001A43C8E780235B000B9A78788E
:102C00001A430B9201310F0067284FD82428A4D90A
:102C10000300253BDBB2422B9FD893499B00CB5846
:102C20009F46002398460B9B47469C4600E0013197
:102C3000BB00DB195B001F180878303F0300303BF6
:102C4000092BF4D963460B930023B8469A460F002C
:102C500001312E28B3D180200B9AC00002430B9281
:102C600030225242944678780B0084446246092A06
:102C700000D8AAE12A2800D1B9E10F0001319EE76E
:102C8000A046AA46B146C84503D301235B424B4444
:102C900098464B46424659460020D047200025B072
:102CA000F0BCBB46B246A946A046F0BD010069395A
:102CB000C9B20F2900D950E701238B409C466B4BCA
:102CC000994663464A4613400F9362464B461A4262
:102CD00000D068E10A2956D0072900D03DE70D9BB6
:102CE00002CB9846002900D092E10B9B10211A00DC
:102CF0008A43100011310843814680201A00C00029
:102D00000240110003421CD114AB9C461F220F232A
:102D100062440D959C4615000F9B0B9402E0202BFE
:102D20000CD0110064460C4020003730092C00D82C
:102D300007380133E8540A090F29F0D80B9C0D9D80
:102D40000F934B460822069353460592083203928E
:102D5000002204930F9B029201931CAB220000936C
:102D6000594633002800FFF78DF9434604000D93C0
:102D7000FAE60D9B04CB9046002A79DB78780D9318
:102D80000F00013117E70D9B02CB14930B789C4683
:102D900018005346002B00D134E1002815D05346CB
:102DA000013B013399460D940B9C89444A460B0024
:102DB000A14601E0934203D05C780133002CF9D1A5
:102DC0004A465B1A0D9C0B920F938023DB009946B9
:102DD0000B9A13400D934B461A4204D00F9B534558
:102DE00001D953460F93022399460B9A13400B9334
:102DF0004B46134200D1F5E16346002B00D1D6E1EA
:102E00000D9B002B00D182E10B1BD14631009A466D
:102E10003B00A1442E005F464D4622009B4689465A
:102E200009E04B463900541CB0475346185D002852
:102E300000D192E122009542F3D14B465A46A94671
:102E4000BB46350017001E004C460B9B002B00D0E4
:102E5000ADE1149B0D9387E6192B0010A40500200B
:102E6000C43F001008400010544000104190000082
:102E70000B9A283802430B92424652427878904689
:102E80000F000D93013196E678786C2800D15DE152
:102E900080230B9A5B001A430B920131B3E6802327
:102EA0009B00ABE67878682800D148E180230B9A34
:102EB00001311A430B92A6E6672800D1B2E04728F9
:102EC00000D11AE1452800D11CE10B9A0721049298
:102ED00042460D9B0392073352468B4319000292E0
:102EE0000CC92800009201930D912200330059462D
:102EF000FFF700FA040037E6462800D18DE00B9A70
:102F00000721049242460D9B0392073352468B439E
:102F1000190002920CC92800009201930D91220021
:102F200033005946FFF718FC04001DE6631C984661
:102F30002200330059462520A847444614E60D9B3D
:102F400004330F93631C99460B9B9A0700D40AE144
:102F50000D9B2200187859463300A8474346444445
:102F6000012B00D86FE1B0462E0025004C46B94633
:102F70005F4622004346013439002020B047AC426E
:102F8000F7D12C00BB4635004F4646460F9B0D93AC
:102F9000EAE5D64B38789A4600239846002800D0B8
:102FA000D3E500246FE66F2842D000D8FDE110235E
:102FB000782800D19BE00B9A9A430B920A239C46F7
:102FC000002314930A330F9338E057460B9AB90045
:102FD000C919490001330F181878303F0100303902
:102FE0000929F4D9BA460B921F00591CE7E50D9B3D
:102FF000B87804CB0237D143C9170A4092460D93E3
:10300000791CDCE5002800D1DFE602235B42C8E63C
:1030100021200B9A0243914676E620230B9A1A430D
:103020000B926CE780230B9A1B011A430B924CE71F
:1030300008239C460023149308330F930B98802396
:103040000200DB001A4011000200184200D080E0AC
:103050000C239A431000802302009B001A400B921D
:10306000184200D0F1E0802302005B001A40914634
:103070000D9A04321492184200D0C3E2430600D5E0
:10308000D7E0030600D421E30D9B1B880993002B96
:1030900000D02DE110339843002900D128E100230E
:1030A000994643460593534604930F9B069003931A
:1030B000002302934B4601931CAB22000093594618
:1030C00033002800FEF7DEFF0400C2E6582809D0CE
:1030D000622800D0E3E202239C46002314930233CB
:1030E0000F93ABE720230B9A1A430B92103B9C469D
:1030F0000023149310330F93A0E780230B9A1B0136
:103100001A430B9220230B9A1A430B92DDE60B1BFA
:103110009A460F9B99463B0037005E469B4622002D
:103120003B003100A84753460134185D0028F6D112
:103130004B460F935B46B3463E001F0085E6C02317
:103140000B9AB8781A430B92F91C5CE5C0239B00DC
:10315000F6E70D239A4310007DE75B463500BB463A
:103160004E461F0071E64346012B66D9631E434459
:1031700032002E001D003B00A2465F4691469B4652
:1031800022004B46013439002020B047AC42F7D131
:103190005B463500BB464E46A14654461F000D9B7C
:1031A0004A461878594633004444A847EEE60F9B38
:1031B000A146984500D84CE64444E41AB0462E0097
:1031C00025004C46B9465F4622004346013439008B
:1031D0002020B047AC42F7D12C00BB4635004F460B
:1031E000464636E60F98804500D873E24346E2181B
:1031F000131A32002E001D003B0091465F469B468D
:103200000F9122004B46013439002020B047AC42D8
:10321000F7D15B46BB461F0043460F9901330F931E
:103220000B7835009C464E466046002800D0E7E506
:103230000FE60D9B1B78099329E70D9B2200187858
:1032400059463300A8474C46A0E60D9AFA3BFF3B8F
:1032500007329A430133994691444B460D931368C4
:10326000526815921A4306D11032904300220992F7
:10327000002900D083E06122810600D54122D2B22C
:103280000A9214AA91460A9A00210A3A0B924246DF
:103290001792524618925A46B24609911E001F31A3
:1032A000149B4944BB4616941A95002467469846D9
:1032B0008946159D19901B920AE03032D2B24B46D6
:1032C00001341A55A8454CD0202C4CD006000D00D6
:1032D0003A00002330002900FEF72EF8D2B2092A66
:1032E000EBD90B9B9C466244D2B2E8E7D51F001095
:1032F0006123820600D54123DBB20A3B0B93434690
:1033000014A91F228C46159353466244B2460D946D
:1033100017974C468046A9461700099D0F9E1693A5
:1033200008E03033DBB201343B55B5420ED3202CDC
:103330000CD0050031002800FDF7C0FFCBB20929F1
:10334000EFD90B9A94466344DBB2ECE7159B4046F9
:103350009846169B4D465646A1469A460D9C179F89
:103360009FE6B742B0D9179B56469846189B5F46D2
:103370009A461B9B09949B46169C19981A9D434696
:103380000593534604930F9B0690039300230293E7
:10339000099B01931CAB220000935946330028007F
:1033A000FEF770FE0400FFF7DFFB10230B9A9A4331
:1033B0000F92692800D091E10B9980230A00DB006D
:1033C0001A4010000A00194203D0112118008A4344
:1033D0000F920F9A802311009B0019408C461A42CD
:1033E0005BD1802311005B00194089460D9904319F
:1033F0000B911A4200D0B2E013005B0600D4EDE05E
:103400000D9B1B781A00D90F0D91002B00D1A3E062
:10341000100014AA944642461F2315925246634454
:10342000A846BA464D461494B14604001F001692B1
:1034300001E0202D0FD020000A21FDF73FFF0135CC
:103440007E193031317020000A21FDF737FF260048
:103450000400092EEDD8159B4E46A94645469846D0
:10346000169B57469A46149C0F9B0693434605931A
:10347000534604930A2303930D9B02934B460193F7
:103480001CAB22000093594633002800FEF7FAFDDA
:103490000B9B04000D93FFF767FB07220D9B07337F
:1034A0009343013294469C4462460D920CCBD90F53
:1034B0000B911100194300D19BE0D9171391129180
:1034C0005140109113995940119110981199129AE5
:1034D000139B801A99411090119114AA9446424668
:1034E0000023159252469946169232001F336344C8
:1034F000A8464E46BA4614941F00109C119D914652
:1035000001E0202E10D0200029000A220023FDF720
:1035100013FF013630322B00BA550D002200040093
:10352000002BEED1092AECD8159B10941195454635
:1035300098464B46169AB14657461E009246149C32
:103540000F9B069343460593534604930A23039324
:103550000B9B02934B461CE7002885D159E70D9B36
:103560001B68DA0F1100002B00D1A6E0DA179818BB
:10357000504014AA91461F2342464B44A8460D943E
:10358000169704006546B1461F001491159201E09C
:10359000202D0FD020000A21FDF790FE01357E1965
:1035A0003031317020000A21FDF788FE260004002A
:1035B000092EEDD8159BAC4645469846149B4E46C1
:1035C00019000D9C169F0F9B02910693434605938D
:1035D000534604930A230393634650E713001B06E4
:1035E0006ED50D9B00229B5ED9175A184A4092B2A5
:1035F00009E7002399460028A2D100220023109257
:1036000011936AE70D9B1B689946002B03D1103379
:103610009843002938D16123820600D54123DBB2CB
:103620000A3B0D9343461693534614A91F228C461A
:1036300017932B0062444D46B24615941897804666
:10364000170099460B9C0F9E08E03033DBB2013423
:103650003B55B5420ED3202C0CD00500310028007C
:10366000FDF72CFECBB20929EFD90D9A944663449D
:10367000DBB2ECE7169B40469846179B56464D46F4
:103680009A460B94189F159C434605935346049302
:103690000F9B06900393002302930B9B0BE50B9962
:1036A00080230A00DB001A4010000A00194200D0F3
:1036B0008BE610239A430F928BE6002883D158E7BC
:1036C0000D9B1B68D9175A184A409CE60D9B1B6836
:1036D0000993DCE4030001330F93A5E50B926DE43D
:1036E00000B585B0039101210290009303481300B7
:1036F0004A4202A9FFF710FA05B000BDE52200100A
:1037000010B5094A0300146884B0002C08D00122C7
:1037100000910648524203A9A047012004B010BD01
:1037200000F074F90020F9E7A4050020D52200106C
:1037300000BEFDE710B5FFF7FBFFC04670B5FDF713
:10374000BDFC074D074EB54209D20024013E761B51
:10375000B60808CD984723000134B342F9D170BDB3
:10376000643E0010683E0010030010B50800110010
:103770001B68984710BDC046F0B5C64600B5437DEE
:1037800007000D001600002B38D0002A2EDD002186
:103790006A1E90466A5C037D4C1C00200A2A0CD0ED
:1037A000A64216D043461B5D21000D3B5A425341B1
:1037B0006A5CDBB24C1C0A2AF2D1002BF0D18842A1
:1037C00017DB022110483B689847A64207D020002B
:1037D000E8E7864203DD311A3B6828189847AD199F
:1037E000013D2B780D3B5A4253413B7580BCB84696
:1037F000F0BD091A3B6828189847E2E703681100F2
:1038000028009847F2E7C046B0410010F0B5C64620
:103810000B6806000C0000B5802B06D05A1C2260F5
:10382000E418267180BCB846F0BD0F4B1D68002D12
:1038300016D00B1D98460D4F02E02D69002D0FD0BC
:103840002B68002BF9D03B68002B01D0AB42F4D1A0
:10385000280041462268FFF78FFF2D69002DEFD128
:1038600001220023DBE7C0469C050020A0050020C4
:10387000F0B5DE4657464E464546E0B585B01700E2
:103880001C0006000D00FDF763FA0023314A1218F0
:103890004B41802109068B4202D301222E4B52421A
:1038A0002E4908008A4600F0B7FA01906B1C03D13C
:1038B000300000F069FA0500002C26D0284B98460D
:1038C000284B1C68002C15D0002F21D1264F02E078
:1038D0002469002C0ED02368002BF9D03B68002B04
:1038E00001D09C42F4D120002A003100C047246955
:1038F000002CF0D1019B002B28D1280005B0F0BC92
:10390000BB46B246A946A046F0BD184B9846D7E73D
:10391000154B994602ABDF1D0A239B4602E0246942
:10392000002CE7D02368002BF9D04B461B68002BF6
:1039300001D0A342F3D12A0031002000C0475B46EA
:103940000122390020003B70C047E8E7504600F0F4
:103950004BFAD2E740420F00FFFFFF7FE00100205B
:10396000793700109C050020A00500206937001061
:1039700000207047F0B5CE46474680B583B06B4611
:103980000600DD1D2870FDF7E3F900231A4A12181E
:103990004B41802109068B4202D30122174B524230
:1039A00017490800884600F037FA164B81461C6814
:1039B000002C14D0144F02E02469002C0FD023688F
:1039C000002BF9D03B68002B01D09C42F4D12000A1
:1039D00001222900FFF7D0FE2469002CEFD14B46CD
:1039E000002B05D1300003B0C0BCB946B046F0BDD5
:1039F000404600F0F9F9F5E740420F00FFFFFF7F76
:103A0000E00100209C050020A005002070B5040006
:103A100000F0BAF901230100050001222000FFF7A0
:103A200027FF084B1C68002C06D06368002B05D0CC
:103A300098472469002CF8D1280070BD2469002C17
:103A4000F3D1F9E79C050020F0B5CE46474680B596
:103A5000A3B004000D00FDF77BF90023294A1218DA
:103A60004B41802109068B4202D30122264B524250
:103A7000264F380000F0D0F9002306000193220001
:103A80002B00234801A9FFF72BFE019B8046002B4A
:103A900014D1204B1C68002C06D06368002B0BD07F
:103AA00098472469002CF8D1002E25D1404623B038
:103AB000C0BCB946B046F0BD2469ECE7154B1D68A3
:103AC0009946002D1CD0144C02E02D69002D0FD01A
:103AD0002B68002BF9D02368002B01D0AB42F4D126
:103AE0002800019A02A9FFF747FE2D69002DEFD1AA
:103AF0004B4601951C68CEE7380000F075F9D5E714
:103B00000195D1E740420F00FFFFFF7FE001002059
:103B10000D3800109C050020A00500200FB400B552
:103B200083B004A901C90191FFF78EFF03B008BC5F
:103B300004B01847F0B55746DE464E46454688461F
:103B4000E0B583B006000524FCF792FC43468446AA
:103B50001C571879364B374AF3181B0D9B009246B9
:103B6000D75801228240013A002C42DB2021091A59
:103B70008C423BDC1100A14025000F4236D141466A
:103B8000096889464146897900294DD1AA40934662
:103B90003A423FD18021890100228846002816D070
:103BA0006146A44634004E469946030001915100F7
:103BB000705A404500D24019511912318900013222
:103BC00008519342F3D8019B64469C464B465A46A3
:103BD00017435246D7506046FCF756FC200003B00E
:103BE000F0BCBB46B246A946A046F0BD01246442E3
:103BF000F1E72024241A0DD41100A14025008B46A2
:103C0000394205D109E01100A14025000F42B6D08C
:103C1000013CF8D209246442DDE74246126891462D
:103C200042469279002AB5D014246442D3E7C046B4
:103C30000000E0AF68050020F0B54E464546DE4680
:103C40005746E0B583B089460CA984460D781F2AF3
:103C500045D84946490088464944C90046183700B6
:103C60003400DC373868CC3483462068310001905A
:103C70001C4880248246A40251440C6069424D4194
:103C80001E216D428D4318498A465544052B0CD997
:103C9000A0201F214005D836540104430532053BBE
:103CA0003C600A403560052BF6D852019B06134351
:103CB00042464A44D20062441000DC3213600300E2
:103CC000D8331D605B461360019BCC30036000203D
:103CD00003B0F0BCBB46B246A946A046F0BD0520E5
:103CE0004042F5E7CC3000009FE00000F0B5012530
:103CF0008D400468AC430460002B2ED04D006C183E
:103D0000E400041926001F68C83637609F6804362F
:103D100077605F68DB68DC34376023606B18184DB0
:103D2000DB00AC468025C41864442D062560256060
:103D3000144C0D1D8C40846001242600AE4080256B
:103D400008318C401F21AD014519C0180A40D830F8
:103D50002E602C6002600020F0BD4D006C18E40065
:103D6000041926008027C8367F023760C0273F032A
:103D7000B760F82704367F02DC3437602360CDE774
:103D8000D01000000101010110B583070AD0030023
:103D9000032102E001330B4205D01A78002AF9D141
:103DA000181A10BD030019680C4A0D4C8A188A4372
:103DB00022420FD15968094A04338A188A432242A1
:103DC00008D15968054A04338A188A432242F1D03F
:103DD00000E001331A78002AFBD1E1E7FFFEFEFE86
:103DE00080808080F8B5C04601B40248844601BC9A
:103DF000604700BF5D01002001B40248844601BC59
:103E0000604700BF8501002001B40248844601BC20
:103E1000604700BF8501002001B40248844601BC10
:103E2000604700BFC1000020E51000101111001014
:103E30005D120010B91F0010F1180010291F0010AA
:103E4000851100102D1100104D110010611100108E
:103E5000C1050010691100103D090010AD100010DF
:083E600015050010B10200106D
:103E6800426C696E6B696E672070696E20256420EC
:103E7800617420256420487A0A0000004C6F616450
:103E880065642070726F6772616D206174202564AB
:103E98000A00000048656C6C6F2C20776F726C64A8
:103EA800210000000A2A2A2A2050414E4943202A8C
:103EB8002A2A0A000A000000486172647761726564
:103EC80020616C61726D20256420616C726561648B
:103ED8007920636C61696D656400000048617264F3
:103EE800206173736572740052656C656173650057
:103EF800626F6F74325F773235713038300000008E
:103F0800302E3100322E312E300000007069636F80
:103F18000000000070696F5F626C696E6B000000E2
:103F2800466562202031203230323500666E692BBA
:103F380000000000666E69006E616E00666E692D95
:103F480000000000543F001008FF0000A0804060FF
:103F580022A005E0440022A002E0470006005250DB
:103F6800D3F07542F03E001006005250E182887F7F
:103F7800F83E0010060052503ABCA911083F001044
:103F880006005250ABB360530C3F0010060052506D
:103F9800BBFF3CB6143F001006005250861C0302BB
:103FA8001C3F0010060052505422A29D283F0010CA
:103FB80005005250DE65F468FC420010F02B00103A
:103FC800A02B0010A02B0010E82B0010A02B001035
:103FD800A02B0010A02B0010A02B0010A02B00106D
:103FE800A02B0010A02B0010E02B0010A02B00101D
:103FF800D82B0010A02B0010A02B0010D02B0010E5
:10400800A42E0010062C00109E2E0010062C001066
:10401800882E0010062C0010062C0010062C00100C
:10402800062C0010062C0010062C0010062C001080
:10403800F82B0010062C0010062C0010062C00107F
:10404800062C0010062C0010F82B00102C2F001046
:104058005A2B00105A2B00105A2B00105A2B001004
:104068005A2B00105A2B00105A2B00105A2B0010F4
:104078005A2B00105A2B00105A2B00105A2B0010E4
:104088005A2B00105A2B00105A2B00105A2B0010D4
:104098005A2B00105A2B00105A2B00105A2B0010C4
:1040A8005A2B00105A2B00105A2B00105A2B0010B4
:1040B8005A2B00105A2B00105A2B00105A2B0010A4
:1040C8005A2B00105A2B00105A2B0010B82E001033
:1040D800F82E0010B82E00105A2B00105A2B001082
:1040E8005A2B00105A2B00105A2B00105A2B001074
:1040F8005A2B00105A2B00105A2B00105A2B001064
:104108005A2B00105A2B00105A2B00105A2B001053
:104118005A2B00105A2B0010CC3000105A2B0010CC
:104128005A2B00105A2B00105A2B00105A2B001033
:104138005A2B00105A2B00105A2B00105A2B001023
:10414800CC3000103E2F0010CC300010B82E0010DC
:10415800F82E0010B82E0010000000000000F03FFC
:10416800000000000000244000000000000059404A
:104178000000000000408F40000000000088C3409D
:1041880000000000006AF8400000000080842E4112
:1041980000000000D01263410000000084D797415E
:0C41A8000000000065CDCD410D0A0000B4
:1041B400643F0010703F00107C3F0010883F0010E7
:1041C400943F0010A03F0010AC3F0010B83F001017
:1041D400F0B5C646150000B504001E000268EFF3F2
:1041E400108172B61368002BFCD0BFF35F8F0423D9
:1041F400E356002B2DDB2268BFF35F8F0020106095
:1042040081F31088D0221206127852B290469A4254
:1042140003D1002080BCB846F0BD00270BE0236822
:10422400BFF35F8F1F6081F310882800310000F016
:1042340033F80028EDD12268EFF3108172B61368C9
:10424400002BFCD0BFF35F8F23797F2BE7D9434644
:1042540002E0D0231B061B6823712368BFF35F8F22
:1042640000221A6081F310880120D3E70268EFF37B
:10427400108172B61368002BFCD0BFF35F8FFF234D
:1042840003710368BFF35F8F00221A6081F3108803
:1042940040BF70477047C04601B40248844601BC21
:1042A400604700BF4D0C001010000000000000002B
:1042B40000000000000000000000000000000000FA
:1042C400E8010020000000000000000000000000E1
:1042D400503300004C3300005433000052330000CC
:1042E4004D5300004D43000053340000433400009C
:0842F4000000000000000000C2
:04000005100001E9FD
:00000001FF
